{
  "_format": "hh-sol-artifact-1",
  "contractName": "OGCard",
  "sourceName": "contracts/OGCard.sol",
  "abi": [
    {
      "inputs": [
        {
          "internalType": "string",
          "name": "name",
          "type": "string"
        },
        {
          "internalType": "string",
          "name": "symbol",
          "type": "string"
        },
        {
          "internalType": "string",
          "name": "_baseUrl",
          "type": "string"
        },
        {
          "internalType": "address",
          "name": "owner",
          "type": "address"
        },
        {
          "internalType": "uint64",
          "name": "wlStartTime",
          "type": "uint64"
        },
        {
          "internalType": "uint64",
          "name": "fmStartTime",
          "type": "uint64"
        }
      ],
      "stateMutability": "nonpayable",
      "type": "constructor"
    },
    {
      "inputs": [],
      "name": "ERC721EnumerableForbiddenBatchMint",
      "type": "error"
    },
    {
      "inputs": [
        {
          "internalType": "address",
          "name": "sender",
          "type": "address"
        },
        {
          "internalType": "uint256",
          "name": "tokenId",
          "type": "uint256"
        },
        {
          "internalType": "address",
          "name": "owner",
          "type": "address"
        }
      ],
      "name": "ERC721IncorrectOwner",
      "type": "error"
    },
    {
      "inputs": [
        {
          "internalType": "address",
          "name": "operator",
          "type": "address"
        },
        {
          "internalType": "uint256",
          "name": "tokenId",
          "type": "uint256"
        }
      ],
      "name": "ERC721InsufficientApproval",
      "type": "error"
    },
    {
      "inputs": [
        {
          "internalType": "address",
          "name": "approver",
          "type": "address"
        }
      ],
      "name": "ERC721InvalidApprover",
      "type": "error"
    },
    {
      "inputs": [
        {
          "internalType": "address",
          "name": "operator",
          "type": "address"
        }
      ],
      "name": "ERC721InvalidOperator",
      "type": "error"
    },
    {
      "inputs": [
        {
          "internalType": "address",
          "name": "owner",
          "type": "address"
        }
      ],
      "name": "ERC721InvalidOwner",
      "type": "error"
    },
    {
      "inputs": [
        {
          "internalType": "address",
          "name": "receiver",
          "type": "address"
        }
      ],
      "name": "ERC721InvalidReceiver",
      "type": "error"
    },
    {
      "inputs": [
        {
          "internalType": "address",
          "name": "sender",
          "type": "address"
        }
      ],
      "name": "ERC721InvalidSender",
      "type": "error"
    },
    {
      "inputs": [
        {
          "internalType": "uint256",
          "name": "tokenId",
          "type": "uint256"
        }
      ],
      "name": "ERC721NonexistentToken",
      "type": "error"
    },
    {
      "inputs": [
        {
          "internalType": "address",
          "name": "owner",
          "type": "address"
        },
        {
          "internalType": "uint256",
          "name": "index",
          "type": "uint256"
        }
      ],
      "name": "ERC721OutOfBoundsIndex",
      "type": "error"
    },
    {
      "inputs": [
        {
          "internalType": "address",
          "name": "owner",
          "type": "address"
        }
      ],
      "name": "OwnableInvalidOwner",
      "type": "error"
    },
    {
      "inputs": [
        {
          "internalType": "address",
          "name": "account",
          "type": "address"
        }
      ],
      "name": "OwnableUnauthorizedAccount",
      "type": "error"
    },
    {
      "anonymous": false,
      "inputs": [
        {
          "indexed": true,
          "internalType": "address",
          "name": "owner",
          "type": "address"
        },
        {
          "indexed": true,
          "internalType": "address",
          "name": "approved",
          "type": "address"
        },
        {
          "indexed": true,
          "internalType": "uint256",
          "name": "tokenId",
          "type": "uint256"
        }
      ],
      "name": "Approval",
      "type": "event"
    },
    {
      "anonymous": false,
      "inputs": [
        {
          "indexed": true,
          "internalType": "address",
          "name": "owner",
          "type": "address"
        },
        {
          "indexed": true,
          "internalType": "address",
          "name": "operator",
          "type": "address"
        },
        {
          "indexed": false,
          "internalType": "bool",
          "name": "approved",
          "type": "bool"
        }
      ],
      "name": "ApprovalForAll",
      "type": "event"
    },
    {
      "anonymous": false,
      "inputs": [
        {
          "indexed": false,
          "internalType": "string",
          "name": "oldUrl",
          "type": "string"
        },
        {
          "indexed": false,
          "internalType": "string",
          "name": "newUrl",
          "type": "string"
        }
      ],
      "name": "BaseUrlSet",
      "type": "event"
    },
    {
      "anonymous": false,
      "inputs": [
        {
          "indexed": false,
          "internalType": "uint64",
          "name": "fmStartTime",
          "type": "uint64"
        }
      ],
      "name": "FreeMintStartTimeSet",
      "type": "event"
    },
    {
      "anonymous": false,
      "inputs": [
        {
          "indexed": false,
          "internalType": "address",
          "name": "minter",
          "type": "address"
        },
        {
          "indexed": false,
          "internalType": "uint256",
          "name": "tokenId",
          "type": "uint256"
        }
      ],
      "name": "FreeMinted",
      "type": "event"
    },
    {
      "anonymous": false,
      "inputs": [
        {
          "indexed": true,
          "internalType": "address",
          "name": "previousOwner",
          "type": "address"
        },
        {
          "indexed": true,
          "internalType": "address",
          "name": "newOwner",
          "type": "address"
        }
      ],
      "name": "OwnershipTransferred",
      "type": "event"
    },
    {
      "anonymous": false,
      "inputs": [
        {
          "indexed": true,
          "internalType": "address",
          "name": "from",
          "type": "address"
        },
        {
          "indexed": true,
          "internalType": "address",
          "name": "to",
          "type": "address"
        },
        {
          "indexed": true,
          "internalType": "uint256",
          "name": "tokenId",
          "type": "uint256"
        }
      ],
      "name": "Transfer",
      "type": "event"
    },
    {
      "anonymous": false,
      "inputs": [
        {
          "indexed": false,
          "internalType": "uint64",
          "name": "wlStartTime",
          "type": "uint64"
        }
      ],
      "name": "WhiteListStartTimeSet",
      "type": "event"
    },
    {
      "anonymous": false,
      "inputs": [
        {
          "indexed": false,
          "internalType": "bytes32",
          "name": "wl",
          "type": "bytes32"
        },
        {
          "indexed": false,
          "internalType": "uint256",
          "name": "tokenId",
          "type": "uint256"
        }
      ],
      "name": "WhitelistMinted",
      "type": "event"
    },
    {
      "inputs": [],
      "name": "MaxSupply",
      "outputs": [
        {
          "internalType": "uint256",
          "name": "",
          "type": "uint256"
        }
      ],
      "stateMutability": "view",
      "type": "function"
    },
    {
      "inputs": [
        {
          "internalType": "address",
          "name": "to",
          "type": "address"
        },
        {
          "internalType": "uint256",
          "name": "tokenId",
          "type": "uint256"
        }
      ],
      "name": "approve",
      "outputs": [],
      "stateMutability": "nonpayable",
      "type": "function"
    },
    {
      "inputs": [
        {
          "internalType": "address",
          "name": "owner",
          "type": "address"
        }
      ],
      "name": "balanceOf",
      "outputs": [
        {
          "internalType": "uint256",
          "name": "",
          "type": "uint256"
        }
      ],
      "stateMutability": "view",
      "type": "function"
    },
    {
      "inputs": [],
      "name": "freeMint",
      "outputs": [],
      "stateMutability": "nonpayable",
      "type": "function"
    },
    {
      "inputs": [],
      "name": "freeMintStartAt",
      "outputs": [
        {
          "internalType": "uint64",
          "name": "",
          "type": "uint64"
        }
      ],
      "stateMutability": "view",
      "type": "function"
    },
    {
      "inputs": [
        {
          "internalType": "uint256",
          "name": "tokenId",
          "type": "uint256"
        }
      ],
      "name": "getApproved",
      "outputs": [
        {
          "internalType": "address",
          "name": "",
          "type": "address"
        }
      ],
      "stateMutability": "view",
      "type": "function"
    },
    {
      "inputs": [
        {
          "internalType": "address",
          "name": "owner",
          "type": "address"
        },
        {
          "internalType": "address",
          "name": "operator",
          "type": "address"
        }
      ],
      "name": "isApprovedForAll",
      "outputs": [
        {
          "internalType": "bool",
          "name": "",
          "type": "bool"
        }
      ],
      "stateMutability": "view",
      "type": "function"
    },
    {
      "inputs": [
        {
          "internalType": "address",
          "name": "wallet",
          "type": "address"
        }
      ],
      "name": "isWhitelist",
      "outputs": [
        {
          "internalType": "bool",
          "name": "",
          "type": "bool"
        }
      ],
      "stateMutability": "view",
      "type": "function"
    },
    {
      "inputs": [
        {
          "internalType": "bytes32",
          "name": "",
          "type": "bytes32"
        }
      ],
      "name": "minted",
      "outputs": [
        {
          "internalType": "bool",
          "name": "",
          "type": "bool"
        }
      ],
      "stateMutability": "view",
      "type": "function"
    },
    {
      "inputs": [],
      "name": "name",
      "outputs": [
        {
          "internalType": "string",
          "name": "",
          "type": "string"
        }
      ],
      "stateMutability": "view",
      "type": "function"
    },
    {
      "inputs": [],
      "name": "owner",
      "outputs": [
        {
          "internalType": "address",
          "name": "",
          "type": "address"
        }
      ],
      "stateMutability": "view",
      "type": "function"
    },
    {
      "inputs": [
        {
          "internalType": "uint256",
          "name": "tokenId",
          "type": "uint256"
        }
      ],
      "name": "ownerOf",
      "outputs": [
        {
          "internalType": "address",
          "name": "",
          "type": "address"
        }
      ],
      "stateMutability": "view",
      "type": "function"
    },
    {
      "inputs": [
        {
          "internalType": "bytes32[]",
          "name": "wls",
          "type": "bytes32[]"
        }
      ],
      "name": "removeWhitelists",
      "outputs": [],
      "stateMutability": "nonpayable",
      "type": "function"
    },
    {
      "inputs": [],
      "name": "renounceOwnership",
      "outputs": [],
      "stateMutability": "nonpayable",
      "type": "function"
    },
    {
      "inputs": [
        {
          "internalType": "address",
          "name": "from",
          "type": "address"
        },
        {
          "internalType": "address",
          "name": "to",
          "type": "address"
        },
        {
          "internalType": "uint256",
          "name": "tokenId",
          "type": "uint256"
        }
      ],
      "name": "safeTransferFrom",
      "outputs": [],
      "stateMutability": "nonpayable",
      "type": "function"
    },
    {
      "inputs": [
        {
          "internalType": "address",
          "name": "from",
          "type": "address"
        },
        {
          "internalType": "address",
          "name": "to",
          "type": "address"
        },
        {
          "internalType": "uint256",
          "name": "tokenId",
          "type": "uint256"
        },
        {
          "internalType": "bytes",
          "name": "data",
          "type": "bytes"
        }
      ],
      "name": "safeTransferFrom",
      "outputs": [],
      "stateMutability": "nonpayable",
      "type": "function"
    },
    {
      "inputs": [
        {
          "internalType": "address",
          "name": "operator",
          "type": "address"
        },
        {
          "internalType": "bool",
          "name": "approved",
          "type": "bool"
        }
      ],
      "name": "setApprovalForAll",
      "outputs": [],
      "stateMutability": "nonpayable",
      "type": "function"
    },
    {
      "inputs": [
        {
          "internalType": "string",
          "name": "_baseUrl",
          "type": "string"
        }
      ],
      "name": "setBaseUri",
      "outputs": [],
      "stateMutability": "nonpayable",
      "type": "function"
    },
    {
      "inputs": [
        {
          "internalType": "uint64",
          "name": "fmStartTime",
          "type": "uint64"
        }
      ],
      "name": "setFreeMintStartTime",
      "outputs": [],
      "stateMutability": "nonpayable",
      "type": "function"
    },
    {
      "inputs": [
        {
          "internalType": "uint64",
          "name": "wlStartTime",
          "type": "uint64"
        }
      ],
      "name": "setWhitelistStartTime",
      "outputs": [],
      "stateMutability": "nonpayable",
      "type": "function"
    },
    {
      "inputs": [
        {
          "internalType": "bytes4",
          "name": "interfaceId",
          "type": "bytes4"
        }
      ],
      "name": "supportsInterface",
      "outputs": [
        {
          "internalType": "bool",
          "name": "",
          "type": "bool"
        }
      ],
      "stateMutability": "view",
      "type": "function"
    },
    {
      "inputs": [],
      "name": "symbol",
      "outputs": [
        {
          "internalType": "string",
          "name": "",
          "type": "string"
        }
      ],
      "stateMutability": "view",
      "type": "function"
    },
    {
      "inputs": [
        {
          "internalType": "uint256",
          "name": "index",
          "type": "uint256"
        }
      ],
      "name": "tokenByIndex",
      "outputs": [
        {
          "internalType": "uint256",
          "name": "",
          "type": "uint256"
        }
      ],
      "stateMutability": "view",
      "type": "function"
    },
    {
      "inputs": [
        {
          "internalType": "address",
          "name": "owner",
          "type": "address"
        },
        {
          "internalType": "uint256",
          "name": "index",
          "type": "uint256"
        }
      ],
      "name": "tokenOfOwnerByIndex",
      "outputs": [
        {
          "internalType": "uint256",
          "name": "",
          "type": "uint256"
        }
      ],
      "stateMutability": "view",
      "type": "function"
    },
    {
      "inputs": [
        {
          "internalType": "uint256",
          "name": "tokenId",
          "type": "uint256"
        }
      ],
      "name": "tokenURI",
      "outputs": [
        {
          "internalType": "string",
          "name": "",
          "type": "string"
        }
      ],
      "stateMutability": "view",
      "type": "function"
    },
    {
      "inputs": [],
      "name": "totalSupply",
      "outputs": [
        {
          "internalType": "uint256",
          "name": "",
          "type": "uint256"
        }
      ],
      "stateMutability": "view",
      "type": "function"
    },
    {
      "inputs": [
        {
          "internalType": "address",
          "name": "from",
          "type": "address"
        },
        {
          "internalType": "address",
          "name": "to",
          "type": "address"
        },
        {
          "internalType": "uint256",
          "name": "tokenId",
          "type": "uint256"
        }
      ],
      "name": "transferFrom",
      "outputs": [],
      "stateMutability": "nonpayable",
      "type": "function"
    },
    {
      "inputs": [
        {
          "internalType": "address",
          "name": "newOwner",
          "type": "address"
        }
      ],
      "name": "transferOwnership",
      "outputs": [],
      "stateMutability": "nonpayable",
      "type": "function"
    },
    {
      "inputs": [
        {
          "internalType": "bytes32[]",
          "name": "wls",
          "type": "bytes32[]"
        }
      ],
      "name": "uploadWhitelists",
      "outputs": [],
      "stateMutability": "nonpayable",
      "type": "function"
    },
    {
      "inputs": [],
      "name": "whitelistMint",
      "outputs": [],
      "stateMutability": "nonpayable",
      "type": "function"
    },
    {
      "inputs": [],
      "name": "whitelistMintStartAt",
      "outputs": [
        {
          "internalType": "uint64",
          "name": "",
          "type": "uint64"
        }
      ],
      "stateMutability": "view",
      "type": "function"
    },
    {
      "inputs": [
        {
          "internalType": "bytes32",
          "name": "",
          "type": "bytes32"
        }
      ],
      "name": "whitelists",
      "outputs": [
        {
          "internalType": "bool",
          "name": "",
          "type": "bool"
        }
      ],
      "stateMutability": "view",
      "type": "function"
    }
  ],
  "bytecode": "0x60806040523480156200001157600080fd5b506040516200423238038062004232833981810160405281019062000037919062000458565b858584600073ffffffffffffffffffffffffffffffffffffffff168173ffffffffffffffffffffffffffffffffffffffff1603620000af5760006040517f1e4fbdf7000000000000000000000000000000000000000000000000000000008152600401620000a6919062000562565b60405180910390fd5b620000c0816200015760201b60201c565b508160019081620000d29190620007ca565b508060029081620000e49190620007ca565b50505081600d60006101000a81548167ffffffffffffffff021916908367ffffffffffffffff16021790555080600d60086101000a81548167ffffffffffffffff021916908367ffffffffffffffff16021790555083600e90816200014a9190620007ca565b50505050505050620008b1565b60008060009054906101000a900473ffffffffffffffffffffffffffffffffffffffff169050816000806101000a81548173ffffffffffffffffffffffffffffffffffffffff021916908373ffffffffffffffffffffffffffffffffffffffff1602179055508173ffffffffffffffffffffffffffffffffffffffff168173ffffffffffffffffffffffffffffffffffffffff167f8be0079c531659141344cd1fd0a4f28419497f9722a3daafe3b4186f6b6457e060405160405180910390a35050565b6000604051905090565b600080fd5b600080fd5b600080fd5b600080fd5b6000601f19601f8301169050919050565b7f4e487b7100000000000000000000000000000000000000000000000000000000600052604160045260246000fd5b620002848262000239565b810181811067ffffffffffffffff82111715620002a657620002a56200024a565b5b80604052505050565b6000620002bb6200021b565b9050620002c9828262000279565b919050565b600067ffffffffffffffff821115620002ec57620002eb6200024a565b5b620002f78262000239565b9050602081019050919050565b60005b838110156200032457808201518184015260208101905062000307565b60008484015250505050565b6000620003476200034184620002ce565b620002af565b90508281526020810184848401111562000366576200036562000234565b5b6200037384828562000304565b509392505050565b600082601f8301126200039357620003926200022f565b5b8151620003a584826020860162000330565b91505092915050565b600073ffffffffffffffffffffffffffffffffffffffff82169050919050565b6000620003db82620003ae565b9050919050565b620003ed81620003ce565b8114620003f957600080fd5b50565b6000815190506200040d81620003e2565b92915050565b600067ffffffffffffffff82169050919050565b620004328162000413565b81146200043e57600080fd5b50565b600081519050620004528162000427565b92915050565b60008060008060008060c0878903121562000478576200047762000225565b5b600087015167ffffffffffffffff8111156200049957620004986200022a565b5b620004a789828a016200037b565b965050602087015167ffffffffffffffff811115620004cb57620004ca6200022a565b5b620004d989828a016200037b565b955050604087015167ffffffffffffffff811115620004fd57620004fc6200022a565b5b6200050b89828a016200037b565b94505060606200051e89828a01620003fc565b93505060806200053189828a0162000441565b92505060a06200054489828a0162000441565b9150509295509295509295565b6200055c81620003ce565b82525050565b600060208201905062000579600083018462000551565b92915050565b600081519050919050565b7f4e487b7100000000000000000000000000000000000000000000000000000000600052602260045260246000fd5b60006002820490506001821680620005d257607f821691505b602082108103620005e857620005e76200058a565b5b50919050565b60008190508160005260206000209050919050565b60006020601f8301049050919050565b600082821b905092915050565b600060088302620006527fffffffffffffffffffffffffffffffffffffffffffffffffffffffffffffffff8262000613565b6200065e868362000613565b95508019841693508086168417925050509392505050565b6000819050919050565b6000819050919050565b6000620006ab620006a56200069f8462000676565b62000680565b62000676565b9050919050565b6000819050919050565b620006c7836200068a565b620006df620006d682620006b2565b84845462000620565b825550505050565b600090565b620006f6620006e7565b62000703818484620006bc565b505050565b5b818110156200072b576200071f600082620006ec565b60018101905062000709565b5050565b601f8211156200077a576200074481620005ee565b6200074f8462000603565b810160208510156200075f578190505b620007776200076e8562000603565b83018262000708565b50505b505050565b600082821c905092915050565b60006200079f600019846008026200077f565b1980831691505092915050565b6000620007ba83836200078c565b9150826002028217905092915050565b620007d5826200057f565b67ffffffffffffffff811115620007f157620007f06200024a565b5b620007fd8254620005b9565b6200080a8282856200072f565b600060209050601f8311600181146200084257600084156200082d578287015190505b620008398582620007ac565b865550620008a9565b601f1984166200085286620005ee565b60005b828110156200087c5784890151825560018201915060208501945060208101905062000855565b868310156200089c578489015162000898601f8916826200078c565b8355505b6001600288020188555050505b505050505050565b61397180620008c16000396000f3fe608060405234801561001057600080fd5b50600436106101f05760003560e01c80638ccc5f801161010f578063b88d4fde116100a2578063df97486b11610071578063df97486b146105a3578063e35a6a02146105c1578063e985e9c5146105dd578063f2fde38b1461060d576101f0565b8063b88d4fde146104f7578063c683630d14610513578063c87b56dd14610543578063d7ec30db14610573576101f0565b80639c504560116100de5780639c50456014610485578063a0bcfc7f146104a1578063a22cb465146104bd578063b36c1284146104d9576101f0565b80638ccc5f80146103fd5780638da5cb5b1461042d5780638e0d298e1461044b57806395d89b4114610467576101f0565b80634f6ccce7116101875780636352211e116101565780636352211e1461038957806370a08231146103b9578063715018a6146103e9578063804f43cd146103f3576101f0565b80634f6ccce714610315578063570514c2146103455780635b70ea9f146103615780635dc2ba391461036b576101f0565b806318160ddd116101c357806318160ddd1461028f57806323b872dd146102ad5780632f745c59146102c957806342842e0e146102f9576101f0565b806301ffc9a7146101f557806306fdde0314610225578063081812fc14610243578063095ea7b314610273575b600080fd5b61020f600480360381019061020a91906128c8565b610629565b60405161021c9190612910565b60405180910390f35b61022d6106a3565b60405161023a91906129bb565b60405180910390f35b61025d60048036038101906102589190612a13565b610735565b60405161026a9190612a81565b60405180910390f35b61028d60048036038101906102889190612ac8565b610751565b005b610297610767565b6040516102a49190612b17565b60405180910390f35b6102c760048036038101906102c29190612b32565b610774565b005b6102e360048036038101906102de9190612ac8565b610876565b6040516102f09190612b17565b60405180910390f35b610313600480360381019061030e9190612b32565b61091f565b005b61032f600480360381019061032a9190612a13565b61093f565b60405161033c9190612b17565b60405180910390f35b61035f600480360381019061035a9190612d03565b6109b5565b005b610369610a1b565b005b610373610be1565b6040516103809190612d6f565b60405180910390f35b6103a3600480360381019061039e9190612a13565b610bfb565b6040516103b09190612a81565b60405180910390f35b6103d360048036038101906103ce9190612d8a565b610c0d565b6040516103e09190612b17565b60405180910390f35b6103f1610cc7565b005b6103fb610cdb565b005b61041760048036038101906104129190612db7565b610f01565b6040516104249190612910565b60405180910390f35b610435610f21565b6040516104429190612a81565b60405180910390f35b61046560048036038101906104609190612d03565b610f4a565b005b61046f610fb9565b60405161047c91906129bb565b60405180910390f35b61049f600480360381019061049a9190612e10565b61104b565b005b6104bb60048036038101906104b69190612ef2565b6110b6565b005b6104d760048036038101906104d29190612f67565b61119a565b005b6104e16111b0565b6040516104ee9190612b17565b60405180910390f35b610511600480360381019061050c9190613048565b6111b6565b005b61052d60048036038101906105289190612d8a565b6111d3565b60405161053a9190612910565b60405180910390f35b61055d60048036038101906105589190612a13565b611228565b60405161056a91906129bb565b60405180910390f35b61058d60048036038101906105889190612db7565b611291565b60405161059a9190612910565b60405180910390f35b6105ab6112b1565b6040516105b89190612d6f565b60405180910390f35b6105db60048036038101906105d69190612e10565b6112cb565b005b6105f760048036038101906105f291906130cb565b611336565b6040516106049190612910565b60405180910390f35b61062760048036038101906106229190612d8a565b6113ca565b005b60007f780e9d63000000000000000000000000000000000000000000000000000000007bffffffffffffffffffffffffffffffffffffffffffffffffffffffff1916827bffffffffffffffffffffffffffffffffffffffffffffffffffffffff1916148061069c575061069b82611450565b5b9050919050565b6060600180546106b29061313a565b80601f01602080910402602001604051908101604052809291908181526020018280546106de9061313a565b801561072b5780601f106107005761010080835404028352916020019161072b565b820191906000526020600020905b81548152906001019060200180831161070e57829003601f168201915b5050505050905090565b600061074082611532565b5061074a826115ba565b9050919050565b610763828261075e6115f7565b6115ff565b5050565b6000600980549050905090565b600073ffffffffffffffffffffffffffffffffffffffff168273ffffffffffffffffffffffffffffffffffffffff16036107e65760006040517f64a0ae920000000000000000000000000000000000000000000000000000000081526004016107dd9190612a81565b60405180910390fd5b60006107fa83836107f56115f7565b611611565b90508373ffffffffffffffffffffffffffffffffffffffff168173ffffffffffffffffffffffffffffffffffffffff1614610870578382826040517f64283d7b0000000000000000000000000000000000000000000000000000000081526004016108679392919061316b565b60405180910390fd5b50505050565b600061088183610c0d565b82106108c65782826040517fa57d13dc0000000000000000000000000000000000000000000000000000000081526004016108bd9291906131a2565b60405180910390fd5b600760008473ffffffffffffffffffffffffffffffffffffffff1673ffffffffffffffffffffffffffffffffffffffff168152602001908152602001600020600083815260200190815260200160002054905092915050565b61093a838383604051806020016040528060008152506111b6565b505050565b6000610949610767565b821061098f576000826040517fa57d13dc0000000000000000000000000000000000000000000000000000000081526004016109869291906131a2565b60405180910390fd5b600982815481106109a3576109a26131cb565b5b90600052602060002001549050919050565b6109bd61172e565b60008151905060005b81811015610a1657600b60008483815181106109e5576109e46131cb565b5b6020026020010151815260200190815260200160002060006101000a81549060ff02191690558060010190506109c6565b505050565b612710610a26610767565b1115610a67576040517f08c379a0000000000000000000000000000000000000000000000000000000008152600401610a5e90613246565b60405180910390fd5b600d60089054906101000a900467ffffffffffffffff1667ffffffffffffffff16421015610aca576040517f08c379a0000000000000000000000000000000000000000000000000000000008152600401610ac1906132b2565b60405180910390fd5b600033604051602001610add9190612a81565b604051602081830303815290604052805190602001209050600c600082815260200190815260200160002060009054906101000a900460ff1615610b56576040517f08c379a0000000000000000000000000000000000000000000000000000000008152600401610b4d9061331e565b60405180910390fd5b6001600c600083815260200190815260200160002060006101000a81548160ff02191690831515021790555060006001610b8e610767565b610b98919061336d565b9050610ba433826117b5565b7f760d782d61acc3ab7d0c48814cb2fd63a44fa773cb247e4759796c632f435c803382604051610bd59291906131a2565b60405180910390a15050565b600d60009054906101000a900467ffffffffffffffff1681565b6000610c0682611532565b9050919050565b60008073ffffffffffffffffffffffffffffffffffffffff168273ffffffffffffffffffffffffffffffffffffffff1603610c805760006040517f89c62b64000000000000000000000000000000000000000000000000000000008152600401610c779190612a81565b60405180910390fd5b600460008373ffffffffffffffffffffffffffffffffffffffff1673ffffffffffffffffffffffffffffffffffffffff168152602001908152602001600020549050919050565b610ccf61172e565b610cd960006118ae565b565b612710610ce6610767565b1115610d27576040517f08c379a0000000000000000000000000000000000000000000000000000000008152600401610d1e90613246565b60405180910390fd5b600d60009054906101000a900467ffffffffffffffff1667ffffffffffffffff16421015610d8a576040517f08c379a0000000000000000000000000000000000000000000000000000000008152600401610d81906133ed565b60405180910390fd5b600033604051602001610d9d9190612a81565b604051602081830303815290604052805190602001209050600b600082815260200190815260200160002060009054906101000a900460ff16610e15576040517f08c379a0000000000000000000000000000000000000000000000000000000008152600401610e0c90613459565b60405180910390fd5b600c600082815260200190815260200160002060009054906101000a900460ff1615610e76576040517f08c379a0000000000000000000000000000000000000000000000000000000008152600401610e6d9061331e565b60405180910390fd5b6001600c600083815260200190815260200160002060006101000a81548160ff02191690831515021790555060006001610eae610767565b610eb8919061336d565b9050610ec433826117b5565b7ffb604c20a8936b23277ba4e4ec9f55a44bc84dc1fc2cf2fa13968aad5e6659c38282604051610ef5929190613488565b60405180910390a15050565b600c6020528060005260406000206000915054906101000a900460ff1681565b60008060009054906101000a900473ffffffffffffffffffffffffffffffffffffffff16905090565b610f5261172e565b60008151905060005b81811015610fb4576001600b6000858481518110610f7c57610f7b6131cb565b5b6020026020010151815260200190815260200160002060006101000a81548160ff021916908315150217905550806001019050610f5b565b505050565b606060028054610fc89061313a565b80601f0160208091040260200160405190810160405280929190818152602001828054610ff49061313a565b80156110415780601f1061101657610100808354040283529160200191611041565b820191906000526020600020905b81548152906001019060200180831161102457829003601f168201915b5050505050905090565b61105361172e565b80600d60006101000a81548167ffffffffffffffff021916908367ffffffffffffffff1602179055507f82b6cd4ee7ccd99bb2575d597d12c410b975352d30e352360f26fb0d9e5fb8ff816040516110ab9190612d6f565b60405180910390a150565b6110be61172e565b6000600e80546110cd9061313a565b80601f01602080910402602001604051908101604052809291908181526020018280546110f99061313a565b80156111465780601f1061111b57610100808354040283529160200191611146565b820191906000526020600020905b81548152906001019060200180831161112957829003601f168201915b5050505050905081600e908161115c919061365d565b507f9518909d759d95f8e86be7bbd4a4c1e46f39c3541e2d3ac6603766967c8f88a8818360405161118e92919061372f565b60405180910390a15050565b6111ac6111a56115f7565b8383611972565b5050565b61271081565b6111c1848484610774565b6111cd84848484611ae1565b50505050565b600080826040516020016111e79190612a81565b604051602081830303815290604052805190602001209050600b600082815260200190815260200160002060009054906101000a900460ff16915050919050565b606061123382611532565b50600061123e611c98565b9050600081511161125e5760405180602001604052806000815250611289565b8061126884611d2a565b6040516020016112799291906137a2565b6040516020818303038152906040525b915050919050565b600b6020528060005260406000206000915054906101000a900460ff1681565b600d60089054906101000a900467ffffffffffffffff1681565b6112d361172e565b80600d60086101000a81548167ffffffffffffffff021916908367ffffffffffffffff1602179055507f892a310258940d27e06776ac781e0bc2cceb32f985035c7b86b1739e504163258160405161132b9190612d6f565b60405180910390a150565b6000600660008473ffffffffffffffffffffffffffffffffffffffff1673ffffffffffffffffffffffffffffffffffffffff16815260200190815260200160002060008373ffffffffffffffffffffffffffffffffffffffff1673ffffffffffffffffffffffffffffffffffffffff16815260200190815260200160002060009054906101000a900460ff16905092915050565b6113d261172e565b600073ffffffffffffffffffffffffffffffffffffffff168173ffffffffffffffffffffffffffffffffffffffff16036114445760006040517f1e4fbdf700000000000000000000000000000000000000000000000000000000815260040161143b9190612a81565b60405180910390fd5b61144d816118ae565b50565b60007f80ac58cd000000000000000000000000000000000000000000000000000000007bffffffffffffffffffffffffffffffffffffffffffffffffffffffff1916827bffffffffffffffffffffffffffffffffffffffffffffffffffffffff1916148061151b57507f5b5e139f000000000000000000000000000000000000000000000000000000007bffffffffffffffffffffffffffffffffffffffffffffffffffffffff1916827bffffffffffffffffffffffffffffffffffffffffffffffffffffffff1916145b8061152b575061152a82611df8565b5b9050919050565b60008061153e83611e62565b9050600073ffffffffffffffffffffffffffffffffffffffff168173ffffffffffffffffffffffffffffffffffffffff16036115b157826040517f7e2732890000000000000000000000000000000000000000000000000000000081526004016115a89190612b17565b60405180910390fd5b80915050919050565b60006005600083815260200190815260200160002060009054906101000a900473ffffffffffffffffffffffffffffffffffffffff169050919050565b600033905090565b61160c8383836001611e9f565b505050565b60008061161f858585612064565b9050600073ffffffffffffffffffffffffffffffffffffffff168173ffffffffffffffffffffffffffffffffffffffff16036116635761165e8461227e565b6116a2565b8473ffffffffffffffffffffffffffffffffffffffff168173ffffffffffffffffffffffffffffffffffffffff16146116a1576116a081856122c7565b5b5b600073ffffffffffffffffffffffffffffffffffffffff168573ffffffffffffffffffffffffffffffffffffffff16036116e4576116df84612428565b611723565b8473ffffffffffffffffffffffffffffffffffffffff168173ffffffffffffffffffffffffffffffffffffffff16146117225761172185856124f9565b5b5b809150509392505050565b6117366115f7565b73ffffffffffffffffffffffffffffffffffffffff16611754610f21565b73ffffffffffffffffffffffffffffffffffffffff16146117b3576117776115f7565b6040517f118cdaa70000000000000000000000000000000000000000000000000000000081526004016117aa9190612a81565b60405180910390fd5b565b600073ffffffffffffffffffffffffffffffffffffffff168273ffffffffffffffffffffffffffffffffffffffff16036118275760006040517f64a0ae9200000000000000000000000000000000000000000000000000000000815260040161181e9190612a81565b60405180910390fd5b600061183583836000611611565b9050600073ffffffffffffffffffffffffffffffffffffffff168173ffffffffffffffffffffffffffffffffffffffff16146118a95760006040517f73c6ac6e0000000000000000000000000000000000000000000000000000000081526004016118a09190612a81565b60405180910390fd5b505050565b60008060009054906101000a900473ffffffffffffffffffffffffffffffffffffffff169050816000806101000a81548173ffffffffffffffffffffffffffffffffffffffff021916908373ffffffffffffffffffffffffffffffffffffffff1602179055508173ffffffffffffffffffffffffffffffffffffffff168173ffffffffffffffffffffffffffffffffffffffff167f8be0079c531659141344cd1fd0a4f28419497f9722a3daafe3b4186f6b6457e060405160405180910390a35050565b600073ffffffffffffffffffffffffffffffffffffffff168273ffffffffffffffffffffffffffffffffffffffff16036119e357816040517f5b08ba180000000000000000000000000000000000000000000000000000000081526004016119da9190612a81565b60405180910390fd5b80600660008573ffffffffffffffffffffffffffffffffffffffff1673ffffffffffffffffffffffffffffffffffffffff16815260200190815260200160002060008473ffffffffffffffffffffffffffffffffffffffff1673ffffffffffffffffffffffffffffffffffffffff16815260200190815260200160002060006101000a81548160ff0219169083151502179055508173ffffffffffffffffffffffffffffffffffffffff168373ffffffffffffffffffffffffffffffffffffffff167f17307eab39ab6107e8899845ad3d59bd9653f200f220920489ca2b5937696c3183604051611ad49190612910565b60405180910390a3505050565b60008373ffffffffffffffffffffffffffffffffffffffff163b1115611c92578273ffffffffffffffffffffffffffffffffffffffff1663150b7a02611b256115f7565b8685856040518563ffffffff1660e01b8152600401611b47949392919061381b565b6020604051808303816000875af1925050508015611b8357506040513d601f19601f82011682018060405250810190611b80919061387c565b60015b611c07573d8060008114611bb3576040519150601f19603f3d011682016040523d82523d6000602084013e611bb8565b606091505b506000815103611bff57836040517f64a0ae92000000000000000000000000000000000000000000000000000000008152600401611bf69190612a81565b60405180910390fd5b805181602001fd5b63150b7a0260e01b7bffffffffffffffffffffffffffffffffffffffffffffffffffffffff1916817bffffffffffffffffffffffffffffffffffffffffffffffffffffffff191614611c9057836040517f64a0ae92000000000000000000000000000000000000000000000000000000008152600401611c879190612a81565b60405180910390fd5b505b50505050565b6060600e8054611ca79061313a565b80601f0160208091040260200160405190810160405280929190818152602001828054611cd39061313a565b8015611d205780601f10611cf557610100808354040283529160200191611d20565b820191906000526020600020905b815481529060010190602001808311611d0357829003601f168201915b5050505050905090565b606060006001611d3984612584565b01905060008167ffffffffffffffff811115611d5857611d57612b8a565b5b6040519080825280601f01601f191660200182016040528015611d8a5781602001600182028036833780820191505090505b509050600082602001820190505b600115611ded578080600190039150507f3031323334353637383961626364656600000000000000000000000000000000600a86061a8153600a8581611de157611de06138a9565b5b04945060008503611d98575b819350505050919050565b60007f01ffc9a7000000000000000000000000000000000000000000000000000000007bffffffffffffffffffffffffffffffffffffffffffffffffffffffff1916827bffffffffffffffffffffffffffffffffffffffffffffffffffffffff1916149050919050565b60006003600083815260200190815260200160002060009054906101000a900473ffffffffffffffffffffffffffffffffffffffff169050919050565b8080611ed85750600073ffffffffffffffffffffffffffffffffffffffff168273ffffffffffffffffffffffffffffffffffffffff1614155b1561200c576000611ee884611532565b9050600073ffffffffffffffffffffffffffffffffffffffff168373ffffffffffffffffffffffffffffffffffffffff1614158015611f5357508273ffffffffffffffffffffffffffffffffffffffff168173ffffffffffffffffffffffffffffffffffffffff1614155b8015611f665750611f648184611336565b155b15611fa857826040517fa9fbf51f000000000000000000000000000000000000000000000000000000008152600401611f9f9190612a81565b60405180910390fd5b811561200a57838573ffffffffffffffffffffffffffffffffffffffff168273ffffffffffffffffffffffffffffffffffffffff167f8c5be1e5ebec7d5bd14f71427d1e84f3dd0314c0f7b2291e5b200ac8c7c3b92560405160405180910390a45b505b836005600085815260200190815260200160002060006101000a81548173ffffffffffffffffffffffffffffffffffffffff021916908373ffffffffffffffffffffffffffffffffffffffff16021790555050505050565b60008061207084611e62565b9050600073ffffffffffffffffffffffffffffffffffffffff168373ffffffffffffffffffffffffffffffffffffffff16146120b2576120b18184866126d7565b5b600073ffffffffffffffffffffffffffffffffffffffff168173ffffffffffffffffffffffffffffffffffffffff1614612143576120f4600085600080611e9f565b6001600460008373ffffffffffffffffffffffffffffffffffffffff1673ffffffffffffffffffffffffffffffffffffffff168152602001908152602001600020600082825403925050819055505b600073ffffffffffffffffffffffffffffffffffffffff168573ffffffffffffffffffffffffffffffffffffffff16146121c6576001600460008773ffffffffffffffffffffffffffffffffffffffff1673ffffffffffffffffffffffffffffffffffffffff168152602001908152602001600020600082825401925050819055505b846003600086815260200190815260200160002060006101000a81548173ffffffffffffffffffffffffffffffffffffffff021916908373ffffffffffffffffffffffffffffffffffffffff160217905550838573ffffffffffffffffffffffffffffffffffffffff168273ffffffffffffffffffffffffffffffffffffffff167fddf252ad1be2c89b69c2b068fc378daa952ba7f163c4a11628f55a4df523b3ef60405160405180910390a4809150509392505050565b600980549050600a600083815260200190815260200160002081905550600981908060018154018082558091505060019003906000526020600020016000909190919091505550565b60006122d283610c0d565b90506000600860008481526020019081526020016000205490508181146123b7576000600760008673ffffffffffffffffffffffffffffffffffffffff1673ffffffffffffffffffffffffffffffffffffffff168152602001908152602001600020600084815260200190815260200160002054905080600760008773ffffffffffffffffffffffffffffffffffffffff1673ffffffffffffffffffffffffffffffffffffffff168152602001908152602001600020600084815260200190815260200160002081905550816008600083815260200190815260200160002081905550505b6008600084815260200190815260200160002060009055600760008573ffffffffffffffffffffffffffffffffffffffff1673ffffffffffffffffffffffffffffffffffffffff16815260200190815260200160002060008381526020019081526020016000206000905550505050565b6000600160098054905061243c91906138d8565b90506000600a600084815260200190815260200160002054905060006009838154811061246c5761246b6131cb565b5b90600052602060002001549050806009838154811061248e5761248d6131cb565b5b906000526020600020018190555081600a600083815260200190815260200160002081905550600a60008581526020019081526020016000206000905560098054806124dd576124dc61390c565b5b6001900381819060005260206000200160009055905550505050565b6000600161250684610c0d565b61251091906138d8565b905081600760008573ffffffffffffffffffffffffffffffffffffffff1673ffffffffffffffffffffffffffffffffffffffff168152602001908152602001600020600083815260200190815260200160002081905550806008600084815260200190815260200160002081905550505050565b600080600090507a184f03e93ff9f4daa797ed6e38ed64bf6a1f01000000000000000083106125e2577a184f03e93ff9f4daa797ed6e38ed64bf6a1f01000000000000000083816125d8576125d76138a9565b5b0492506040810190505b6d04ee2d6d415b85acef8100000000831061261f576d04ee2d6d415b85acef81000000008381612615576126146138a9565b5b0492506020810190505b662386f26fc10000831061264e57662386f26fc100008381612644576126436138a9565b5b0492506010810190505b6305f5e1008310612677576305f5e100838161266d5761266c6138a9565b5b0492506008810190505b612710831061269c576127108381612692576126916138a9565b5b0492506004810190505b606483106126bf57606483816126b5576126b46138a9565b5b0492506002810190505b600a83106126ce576001810190505b80915050919050565b6126e283838361279b565b61279657600073ffffffffffffffffffffffffffffffffffffffff168373ffffffffffffffffffffffffffffffffffffffff160361275757806040517f7e27328900000000000000000000000000000000000000000000000000000000815260040161274e9190612b17565b60405180910390fd5b81816040517f177e802f00000000000000000000000000000000000000000000000000000000815260040161278d9291906131a2565b60405180910390fd5b505050565b60008073ffffffffffffffffffffffffffffffffffffffff168373ffffffffffffffffffffffffffffffffffffffff161415801561285357508273ffffffffffffffffffffffffffffffffffffffff168473ffffffffffffffffffffffffffffffffffffffff16148061281457506128138484611336565b5b8061285257508273ffffffffffffffffffffffffffffffffffffffff1661283a836115ba565b73ffffffffffffffffffffffffffffffffffffffff16145b5b90509392505050565b6000604051905090565b600080fd5b600080fd5b60007fffffffff0000000000000000000000000000000000000000000000000000000082169050919050565b6128a581612870565b81146128b057600080fd5b50565b6000813590506128c28161289c565b92915050565b6000602082840312156128de576128dd612866565b5b60006128ec848285016128b3565b91505092915050565b60008115159050919050565b61290a816128f5565b82525050565b60006020820190506129256000830184612901565b92915050565b600081519050919050565b600082825260208201905092915050565b60005b8381101561296557808201518184015260208101905061294a565b60008484015250505050565b6000601f19601f8301169050919050565b600061298d8261292b565b6129978185612936565b93506129a7818560208601612947565b6129b081612971565b840191505092915050565b600060208201905081810360008301526129d58184612982565b905092915050565b6000819050919050565b6129f0816129dd565b81146129fb57600080fd5b50565b600081359050612a0d816129e7565b92915050565b600060208284031215612a2957612a28612866565b5b6000612a37848285016129fe565b91505092915050565b600073ffffffffffffffffffffffffffffffffffffffff82169050919050565b6000612a6b82612a40565b9050919050565b612a7b81612a60565b82525050565b6000602082019050612a966000830184612a72565b92915050565b612aa581612a60565b8114612ab057600080fd5b50565b600081359050612ac281612a9c565b92915050565b60008060408385031215612adf57612ade612866565b5b6000612aed85828601612ab3565b9250506020612afe858286016129fe565b9150509250929050565b612b11816129dd565b82525050565b6000602082019050612b2c6000830184612b08565b92915050565b600080600060608486031215612b4b57612b4a612866565b5b6000612b5986828701612ab3565b9350506020612b6a86828701612ab3565b9250506040612b7b868287016129fe565b9150509250925092565b600080fd5b7f4e487b7100000000000000000000000000000000000000000000000000000000600052604160045260246000fd5b612bc282612971565b810181811067ffffffffffffffff82111715612be157612be0612b8a565b5b80604052505050565b6000612bf461285c565b9050612c008282612bb9565b919050565b600067ffffffffffffffff821115612c2057612c1f612b8a565b5b602082029050602081019050919050565b600080fd5b6000819050919050565b612c4981612c36565b8114612c5457600080fd5b50565b600081359050612c6681612c40565b92915050565b6000612c7f612c7a84612c05565b612bea565b90508083825260208201905060208402830185811115612ca257612ca1612c31565b5b835b81811015612ccb5780612cb78882612c57565b845260208401935050602081019050612ca4565b5050509392505050565b600082601f830112612cea57612ce9612b85565b5b8135612cfa848260208601612c6c565b91505092915050565b600060208284031215612d1957612d18612866565b5b600082013567ffffffffffffffff811115612d3757612d3661286b565b5b612d4384828501612cd5565b91505092915050565b600067ffffffffffffffff82169050919050565b612d6981612d4c565b82525050565b6000602082019050612d846000830184612d60565b92915050565b600060208284031215612da057612d9f612866565b5b6000612dae84828501612ab3565b91505092915050565b600060208284031215612dcd57612dcc612866565b5b6000612ddb84828501612c57565b91505092915050565b612ded81612d4c565b8114612df857600080fd5b50565b600081359050612e0a81612de4565b92915050565b600060208284031215612e2657612e25612866565b5b6000612e3484828501612dfb565b91505092915050565b600080fd5b600067ffffffffffffffff821115612e5d57612e5c612b8a565b5b612e6682612971565b9050602081019050919050565b82818337600083830152505050565b6000612e95612e9084612e42565b612bea565b905082815260208101848484011115612eb157612eb0612e3d565b5b612ebc848285612e73565b509392505050565b600082601f830112612ed957612ed8612b85565b5b8135612ee9848260208601612e82565b91505092915050565b600060208284031215612f0857612f07612866565b5b600082013567ffffffffffffffff811115612f2657612f2561286b565b5b612f3284828501612ec4565b91505092915050565b612f44816128f5565b8114612f4f57600080fd5b50565b600081359050612f6181612f3b565b92915050565b60008060408385031215612f7e57612f7d612866565b5b6000612f8c85828601612ab3565b9250506020612f9d85828601612f52565b9150509250929050565b600067ffffffffffffffff821115612fc257612fc1612b8a565b5b612fcb82612971565b9050602081019050919050565b6000612feb612fe684612fa7565b612bea565b90508281526020810184848401111561300757613006612e3d565b5b613012848285612e73565b509392505050565b600082601f83011261302f5761302e612b85565b5b813561303f848260208601612fd8565b91505092915050565b6000806000806080858703121561306257613061612866565b5b600061307087828801612ab3565b945050602061308187828801612ab3565b9350506040613092878288016129fe565b925050606085013567ffffffffffffffff8111156130b3576130b261286b565b5b6130bf8782880161301a565b91505092959194509250565b600080604083850312156130e2576130e1612866565b5b60006130f085828601612ab3565b925050602061310185828601612ab3565b9150509250929050565b7f4e487b7100000000000000000000000000000000000000000000000000000000600052602260045260246000fd5b6000600282049050600182168061315257607f821691505b6020821081036131655761316461310b565b5b50919050565b60006060820190506131806000830186612a72565b61318d6020830185612b08565b61319a6040830184612a72565b949350505050565b60006040820190506131b76000830185612a72565b6131c46020830184612b08565b9392505050565b7f4e487b7100000000000000000000000000000000000000000000000000000000600052603260045260246000fd5b7f63616e206e6f74206d696e74206d6f7265000000000000000000000000000000600082015250565b6000613230601183612936565b915061323b826131fa565b602082019050919050565b6000602082019050818103600083015261325f81613223565b9050919050565b7f66726565206d696e74206e6f7420737461727400000000000000000000000000600082015250565b600061329c601383612936565b91506132a782613266565b602082019050919050565b600060208201905081810360008301526132cb8161328f565b9050919050565b7f616c7265616479206d696e746564000000000000000000000000000000000000600082015250565b6000613308600e83612936565b9150613313826132d2565b602082019050919050565b60006020820190508181036000830152613337816132fb565b9050919050565b7f4e487b7100000000000000000000000000000000000000000000000000000000600052601160045260246000fd5b6000613378826129dd565b9150613383836129dd565b925082820190508082111561339b5761339a61333e565b5b92915050565b7f77686974656c697374206d696e74206e6f742073746172740000000000000000600082015250565b60006133d7601883612936565b91506133e2826133a1565b602082019050919050565b60006020820190508181036000830152613406816133ca565b9050919050565b7f6e6f7420696e2077686974656c69737400000000000000000000000000000000600082015250565b6000613443601083612936565b915061344e8261340d565b602082019050919050565b6000602082019050818103600083015261347281613436565b9050919050565b61348281612c36565b82525050565b600060408201905061349d6000830185613479565b6134aa6020830184612b08565b9392505050565b60008190508160005260206000209050919050565b60006020601f8301049050919050565b600082821b905092915050565b6000600883026135137fffffffffffffffffffffffffffffffffffffffffffffffffffffffffffffffff826134d6565b61351d86836134d6565b95508019841693508086168417925050509392505050565b6000819050919050565b600061355a613555613550846129dd565b613535565b6129dd565b9050919050565b6000819050919050565b6135748361353f565b61358861358082613561565b8484546134e3565b825550505050565b600090565b61359d613590565b6135a881848461356b565b505050565b5b818110156135cc576135c1600082613595565b6001810190506135ae565b5050565b601f821115613611576135e2816134b1565b6135eb846134c6565b810160208510156135fa578190505b61360e613606856134c6565b8301826135ad565b50505b505050565b600082821c905092915050565b600061363460001984600802613616565b1980831691505092915050565b600061364d8383613623565b9150826002028217905092915050565b6136668261292b565b67ffffffffffffffff81111561367f5761367e612b8a565b5b613689825461313a565b6136948282856135d0565b600060209050601f8311600181146136c757600084156136b5578287015190505b6136bf8582613641565b865550613727565b601f1984166136d5866134b1565b60005b828110156136fd578489015182556001820191506020850194506020810190506136d8565b8683101561371a5784890151613716601f891682613623565b8355505b6001600288020188555050505b505050505050565b600060408201905081810360008301526137498185612982565b9050818103602083015261375d8184612982565b90509392505050565b600081905092915050565b600061377c8261292b565b6137868185613766565b9350613796818560208601612947565b80840191505092915050565b60006137ae8285613771565b91506137ba8284613771565b91508190509392505050565b600081519050919050565b600082825260208201905092915050565b60006137ed826137c6565b6137f781856137d1565b9350613807818560208601612947565b61381081612971565b840191505092915050565b60006080820190506138306000830187612a72565b61383d6020830186612a72565b61384a6040830185612b08565b818103606083015261385c81846137e2565b905095945050505050565b6000815190506138768161289c565b92915050565b60006020828403121561389257613891612866565b5b60006138a084828501613867565b91505092915050565b7f4e487b7100000000000000000000000000000000000000000000000000000000600052601260045260246000fd5b60006138e3826129dd565b91506138ee836129dd565b92508282039050818111156139065761390561333e565b5b92915050565b7f4e487b7100000000000000000000000000000000000000000000000000000000600052603160045260246000fdfea26469706673582212209fe160b242cae3ef987287eebb87c6764b8c79fdfcc8f0b8515e1d2261c1cdb364736f6c63430008180033",
  "linkReferences": {},
  "deployedLinkReferences": {}
}